:1000000000200010C10000009591000097910000B1
:1000100000000000000000000000000000000000E0
:1000200000000000000000000000000099910000A6
:1000300000000000000000009B9100009D91000066
:100040009F9100009F9100009F9100009F910000F0
:100050009F9100009F9100009F9100009F910000E0
:100060009F9100009F9100009F9100009F910000D0
:100070009F9100009F9100009F9100009F910000C0
:100080009F9100009F9100009F9100009F910000B0
:100090009F9100009F9100009F9100009F910000A0
:1000A0009F9100009F9100009F9100009F91000090
:1000B0009F9100009F9100009F9100009F91000080
:1000C0000749084A084B9B1A05DD002408591051BE
:1000D00004349C42FADB054880470548004700008D
:1000E00044470100C00000100007001011920000FA
:1000F000610200000000000000000000000000009D
:1001000000000000000000000000000000000000EF
:1001100000000000000000000000000000000000DF
:1001200000000000000000000000000000000000CF
:1001300000000000000000000000000000000000BF
:1001400000000000000000000000000000000000AF
:10015000000000000000000000000000000000009F
:10016000000000000000000000000000000000008F
:10017000000000000000000000000000000000007F
:10018000000000000000000000000000000000006F
:10019000000000000000000000000000000000005F
:1001A000000000000000000000000000000000004F
:1001B000000000000000000000000000000000003F
:1001C000000000000000000000000000000000002F
:1001D000000000000000000000000000000000001F
:1001E000000000000000000000000000000000000F
:1001F00000000000000000000000000000000000FF
:1002000010B5064C2378002B07D1054B002B02D0EC
:10021000044800E000BF0123237010BD0007001058
:100220000000000038470100084B10B5002B03D038
:100230000749084800E000BF07480368002B00D1C9
:1002400010BD064B002BFBD09847F9E700000000DB
:1002500004070010384701000007001000000000EC
:10026000164B002B00D1144B9D46402292029A1A45
:10027000924600218B460F461348144A121A0BF07F
:100280004CFA0F4B002B00D098470E4B002B00D0A0
:1002900098470020002104000D000D48002802D0DE
:1002A0000C4800E000BF0BF06FF82000290008F0B8
:1002B00085FD0AF079FCC04600000800002000100F
:1002C000000000000000000000070010E80E001011
:1002D000000000000000000084B0020000916B46A6
:1002E00006331A806B4606331B887F2B06D80E23F5
:1002F0006B446A46063212881A803CE0009B002B51
:1003000012D06B4606331B88FF2B08D86B4606338A
:100310001B88803B1A001B4B5200D25A00E000227F
:100320000E236B441A8026E00E236B4400221A80B1
:100330000E236B441B887F2B13D80E236B441A8823
:10034000104B5200D35A6A46063212889A4207D09E
:100350000E236B441A880E236B4401321A80E7E7A0
:10036000C0460E236B441B8880339AB20E236B4425
:10037000FF210A401A800E236B441B88180004B02A
:100380007047C0467C04010084B002006B4606330F
:100390001A8000230393124B039A5200D35A002B66
:1003A0000CD00F4B039A5200D25A6B4606331B886F
:1003B0009A4203D0039B01330393ECE7084B039A63
:1003C0005200D35A002B04D0064B039A5200D35A42
:1003D00002E06B4606331B88180004B07047C04625
:1003E0007C0501005C0701000EB400B584B00190EB
:1003F000019B012B09D106AB0393064B1B68DB68FD
:10040000039A059918000BF081FBC04604B008BCA4
:1004100003B018473805001000B583B002006B46E2
:1004200007331A706B4607331A780D4B19000020FA
:10043000FFF7DAFF6B4607331A780A4B9200D3585E
:100440001B6820331B686A4607321178054A890009
:100450008A58100098470300DBB2180003B000BDB3
:100460003C0901002409001000B583B002006B466E
:1004700007331A706B4607331A780D4B19000020AA
:10048000FFF7B2FF6B4607331A780A4B9200D35836
:100490001B6824331B686A4607321178054A8900B5
:1004A0008A58100098470300DBB2180003B000BD63
:1004B0005C0901002409001070B588B00491039212
:1004C000190017236B44021C1A7016236B440A1C74
:1004D0001A7016236B44187817236B441B78039A01
:1004E0002049009303000020FFF77EFF039B079342
:1004F00016236B441A78039BD218079B9A422DD976
:10050000079A194B19000020FFF76EFF17236B4461
:100510001A78164B9200D3581B6828331C6817238F
:100520006B441A78114B9200D058079B1D00002392
:100530001E0004992A003300A04703000693069B7F
:10054000002B01D004230AE0049B802292009446F1
:1005500063440493079B01330793C9E70023180002
:1005600008B070BD78090100A40901002409001039
:1005700070B588B004910392190017236B44021CD4
:100580001A7016236B440A1C1A7016236B441878D1
:1005900017236B441B78039A204900930300002023
:1005A000FFF722FF039B079316236B441A78039BE4
:1005B000D218079B9A422DD9079A194B190000208F
:1005C000FFF712FF17236B441A78164B9200D3588B
:1005D0001B682C331C6817236B441A78114B92004C
:1005E000D058079B1D0000231E0004992A003300E9
:1005F000A04703000693069B002B01D004230AE0CA
:10060000049B80229200944663440493079B013329
:100610000793C9E70023180008B070BDBC090100AA
:10062000EC0901002409001010B584B000926B465B
:100630000733021C1A706B4606330A1C1A706B468D
:1006400006331A78314B19000020FFF7CDFE6B46B8
:1006500006331B78012B28D0032B4ED0002B51D111
:100660006B4607331A782A4B9200D358002B01D1DE
:10067000032348E06B4607331A78254B9200D35882
:100680001B6830331B686A4607321178204A89009C
:100690008A581000984703005A1E9341DBB2002B82
:1006A00001D001232FE000232DE06B4607331A7899
:1006B000174B9200D358002B01D1032323E06B4644
:1006C00007331A78124B9200D3581B6834331B68D7
:1006D0006A46073211780E4A89008A5810009847F6
:1006E00003000C000393039B002B04D0009B039A90
:1006F0001A60002307E0012305E0009B01221A6035
:10070000002300E00423180004B010BD040A010017
:100710002409001086B0039002910192039B059377
:10072000029B0493019B5A1E01925A1E9341DBB215
:10073000002B08D0059B5A1C0592049A511C049169
:1007400012781A70EEE7C04606B0704786B0039084
:1007500002910192039B0593019B5A1E01925A1E1E
:100760009341DBB2002B06D0059B5A1C0592029ADE
:10077000D2B21A70F0E7C04606B0704788B0039056
:1007800002910192039B0793029B0693002305931A
:10079000019B5A1E0192002B0FD0079B5A1C0792F7
:1007A0001B781900069B5A1C06921B78CB1A0593DE
:1007B000059B002B01D1012300E00023002B00D07A
:1007C000E6E7059B180008B07047C04682B001906C
:1007D0000091019B1B78002B09D0019B1B781A000C
:1007E000009B9A4203D0019B01330193F1E7019BE7
:1007F0001B78180002B0704700B585B001900091D9
:10080000019BDB6A0393039A009B9A4256D0019B9B
:100810001B79002B3BD0019B5878019B303319008A
:10082000039A0123FFF7A4FE03005A1E9341DBB293
:10083000002B01D0012342E0019B00221A71019B91
:100840001A6A019BDB69D218039B9A421FD90B23BA
:100850006B44019AD2781A700B236B441B78012BDE
:1008600015D9019BDB69039AD3180393019B587830
:10087000019B30331900039A0123FFF779FE0B2304
:100880006B441A780B236B44013A1A70E4E7009B1F
:10089000002B13D0019B5878019B30331900009A2C
:1008A0000123FFF709FE03005A1E9341DBB2002B20
:1008B00001D0012303E0019B009ADA6200231800B3
:1008C00005B000BD10B584B001900F246C44019BAD
:1008D00000211800FFF790FF030023700F236B44E3
:1008E0001B78002B00D095E0019B1B78032B00D0D8
:1008F0007FE0019B5B79002B7BD0019B0022DA62B9
:10090000019B3033180080239B001A000021FFF761
:100910001DFF019B424A55219954019B414AAA213E
:100920009954019B302252219954019B312252212A
:100930009954019B322261219954019B3322412118
:100940009954019A85239B007221D154019B364A08
:1009500072219954019B354A41219954019B344A93
:1009600061219954019B1B69D9B2019A86239B008E
:10097000D154019B1B699BB21B12D9B2019B2D4A1A
:100980009954019B1B691B0CD9B2019B2A4A9954AB
:10099000019B1B691B0ED9B2019B284A9954019BEC
:1009A000DB68D9B2019A87239B00D154019BDB6895
:1009B0009BB21B12D9B2019B214A9954019BDB685F
:1009C0001B0CD9B2019B1F4A9954019BDB681B0E7B
:1009D000D9B2019B1C4A9954019B5878019B303332
:1009E0001900019B5A690123FFF7C2FD019B0022F8
:1009F0005A71019B5B78002200211800FFF714FE5A
:100A000003005A1E9341DBB2002B03D00F236B442B
:100A100001221A700F236B441B78180004B010BD1C
:100A20002E0200002F020000150200001602000036
:100A300017020000190200001A0200001B02000049
:100A40001D0200001E0200001F02000082B0019083
:100A50000091009B023B0093019B9B699A1E009BA7
:100A60009A4201D8002307E0019B9B781A00009B63
:100A70005A43019B9B6AD318180002B07047C046C6
:100A800000B587B001900091009B012B04D9019B18
:100A90009A69009B9A4201D80123AFE0019B1B7821
:100AA000022B50D0032B73D0012B00D0A4E0009B6D
:100AB0000593059B5B08059AD3180593019B1A6A59
:100AC000059B5B0AD218019B11001800FFF794FEEA
:100AD00003005A1E9341DBB2002B00D085E0059B3A
:100AE000DB05DB0D019A3021D3185B181B780493CA
:100AF000059B01330593019B1A6A059B5B0AD2187B
:100B0000019B11001800FFF777FE03005A1E934166
:100B1000DBB2002B6BD1059BDB05DB0D019A30218D
:100B2000D3185B181B781B021A00049B1343049311
:100B3000009B0122134002D0049B1B095EE0049B32
:100B40001B051B0D5AE0019B1A6A009B1B0AD21859
:100B5000019B11001800FFF74FFE03005A1E93413E
:100B6000DBB2002B45D1009B5A00FF235B001340F2
:100B70003033019AD3180393039B01331B781B0274
:100B80001AB2039B1B781BB213431BB29BB235E016
:100B9000019B1A6A009BDB09D218019B1100180007
:100BA000FFF72AFE03005A1E9341DBB2002B22D12D
:100BB000009B9A00FE235B0013403033019AD31848
:100BC0000393039B03331B781A06039B02331B78A2
:100BD0001B041343039A0132127812021343039A3F
:100BE000127813431B011B0908E0C04604E0C0460D
:100BF00002E0C04600E0C04601235B42180007B097
:100C000000BDC04610B588B0039002910192029BCE
:100C1000012B04D9039B9A69029B9A4204D81F2393
:100C20006B4402221A70FEE0039B1B78022B00D15A
:100C300078E0032B00D19DE0012B00D0E4E0029B83
:100C40000693069B5B08069AD3180693039B1A6AC1
:100C5000069B5B0AD2181F246C44039B11001800EA
:100C6000FFF7CAFD030023701F236B441B78002B82
:100C700000D0CEE0069BDB05DB0D3033039AD318A2
:100C80000593029B012213400DD0059B1B785BB29C
:100C90000F2213405AB2019BDBB21B015BB213431C
:100CA0005BB2DBB201E0019BDBB2059A1370069BDD
:100CB00001330693039B01221A71039B1A6A069B58
:100CC0005B0AD2181F246C44039B11001800FFF725
:100CD00093FD030023701F236B441B78002B00D06F
:100CE00099E0069BDB05DB0D3033039AD31805939F
:100CF000029B0122134003D0019B1B09DBB20EE0D3
:100D0000059B1B785BB20F2293435AB2019B1B0ACF
:100D10005BB20F210B405BB213435BB2DBB2059AAF
:100D200013707DE0039B1A6A029B1B0AD2181F24D2
:100D30006C44039B11001800FFF75EFD0300237055
:100D40001F236B441B78002B67D1029B5A00FF23A3
:100D50005B0013403033039AD3180593019BDAB23A
:100D6000059B1A70059B0133019A92B21212D2B2FE
:100D70001A7055E0039B1A6A029BDB09D2181F24E4
:100D80006C44039B11001800FFF736FD030023702D
:100D90001F236B441B78002B41D1029B9A00FE233A
:100DA0005B0013403033039AD3180593059B03333C
:100DB0001B781A06059B02331B781B041343059A04
:100DC0000132127812021343059A127813431B0F53
:100DD0001B07019A13430193019BDAB2059B1A701A
:100DE000059B0133019A92B21212D2B21A70059B7E
:100DF0000233019A120CD2B21A70059B0333019A86
:100E0000120ED2B21A700BE01F236B4402221A702A
:100E100006E0C04604E0C04602E0C04600E0C0462E
:100E2000039B01221A711F236B441B78180008B022
:100E300010BDC04610B584B001900091009B012BFD
:100E400004D9019B9A69009B9A4204D80F236B44F2
:100E500002221A7044E00F236B4400221A70019B97
:100E60009A69009B9A423BD9009A019B1100180095
:100E7000FFF706FE03000293029B002B2DD0029B7E
:100E8000012B04D10F236B4402221A7028E0029B2D
:100E9000013304D10F236B4401221A7020E00F2488
:100EA0006C440099019B00221800FFF7ABFE030081
:100EB00023700F236B441B78002B10D1019B1B69FF
:100EC000013307D0019B1B695A1C019B1A61019BCE
:100ED00001225A71029B0093C1E7C04600E0C04660
:100EE0000F236B441B78180004B010BD10B586B0FA
:100EF00001900091009B002B0DD1019BDB680493B6
:100F0000049B002B04D0019B9A69049B9A4218D839
:100F10000123049315E0009A019B11001800FFF7CC
:100F2000AFFD03000293029B012B01D8012370E067
:100F3000019B9A69029B9A4201D9029B69E0009B3E
:100F40000493049B0593059B01330593019B9A69C8
:100F5000059B9A4207D802230593059A049B9A425F
:100F600001D9002355E0059A019B11001800FFF7F5
:100F700087FD03000293029B002B0DD0029B0133DF
:100F800002D0029B012B01D1029B42E0059A049BF7
:100F90009A42D8D100233CE0C0460F246C441E4A3C
:100FA0000599019B1800FFF72DFE030023700F2306
:100FB0006B441B78002B0CD1009B002B09D00F2415
:100FC0006C44059A0099019B1800FFF71BFE030073
:100FD00023700F236B441B78002B0FD1019B059AC4
:100FE000DA60019B1B69013312D0019B1B695A1EF9
:100FF000019B1A61019B01225A7109E00F236B4486
:101000001B78012B02D101235B4200E001230593F1
:10101000059B180006B010BDFFFFFF0F00B585B09F
:1010200001900A006B4602331A80019B6A46023225
:101030001288DA80019B9B680393039B012B05D0E8
:10104000019B1B689A69039B9A4201D802237CE0AA
:10105000039B002B08D1019B1B681B78032B03D13A
:10106000019B1B685B6A0393039B002B18D1019BB8
:10107000039ADA60019B1B681B896A460232128858
:101080009A4201D3022360E0019B1B685B6A6A46B7
:1010900002321288120992B29A18019B1A6146E034
:1010A000019B1B689B789AB20A236B4412011A8039
:1010B0006B469A1C0A236B4412881B889A4223D3DE
:1010C000019B1B68039A11001800FFF7D9FC03006D
:1010D0000393039B013301D1012336E0039B012BD2
:1010E00005D9019B1B689A69039B9A4201D8022388
:1010F0002BE06B4602336A46911C0A226A44098837
:1011000012888A1A1A80D3E7019B039ADA60019B3E
:101110001B68039A11001800FFF798FC02006B4649
:1011200002331B881B099BB2D218019B1A61019BD9
:101130001B6830331A006B4602331B880F210B40AB
:101140005B01D218019B5A610023180005B000BD55
:1011500010B584B001900091019BDA8802AB013296
:101160001A8002AB1B88002B03D0019B1B69002B4C
:1011700001D10423D3E002AB1B880F22134000D01F
:10118000BCE0019B1B695A1C019B1A61019BDB6837
:10119000002B09D1019B1B681B8902AA12889A4265
:1011A00000D2ABE00423BAE002AB1B881B099BB260
:1011B0001A00019B1B689B78013B134000D09DE007
:1011C000019B1A68019BDB6819001000FFF758FCAF
:1011D00003000393039B012B01D802239FE0039B91
:1011E000013301D101239AE0019B1B689A69039B9B
:1011F0009A4200D975E0009B002B01D104238EE0B8
:10120000019B1A68019BDB6819001000FFF76EFE56
:1012100003000393039B002B01D107237FE0039B73
:10122000012B01D102237AE0039B013301D1012379
:1012300075E0019B1B6800211800FFF7DDFA030031
:101240005A1E9341DBB2002B01D0012367E0019BC2
:101250001B683033180080239B001A000021FFF721
:1012600075FA019B1C68019B1B68039A110018000A
:10127000FFF7ECFB0300E3620B236B4400221A70C0
:10128000019B1B689B780B226A4412789A421ED2FB
:10129000019B1B6801221A71019B1B680021180029
:1012A000FFF7AAFA03005A1E9341DBB2002B01D0CC
:1012B000012334E0019B1B68DA6A0132DA620B23F6
:1012C0006B441A780B236B4401321A70D8E7019BE8
:1012D0001B68019A1268D16A0B226A4412788A1A32
:1012E000DA62019B039ADA60019B1B68039A110082
:1012F0001800FFF7ABFB0200019B1A61019B02AAD9
:101300001288DA80019B1B6830331A0002AB1B88FD
:101310000F210B405B01D218019B5A61002318007A
:1013200004B010BD84B001900091009B1B331B786A
:101330001B021AB2009B1A331B781BB213431BB259
:101340009BB20393019B1B78032B0FD1009B15339A
:101350001B781B021AB2009B14331B781BB2134379
:101360001BB29BB21B04039A13430393039B180005
:1013700004B0704782B001900091019B1A33009A2B
:10138000D2B21A70019B1B33009A92B21212D2B2DF
:101390001A70019B1433009A120CD2B21A70019B7E
:1013A0001533009A120C92B21212D2B21A70C046C1
:1013B00002B0704710B586B001900091009B1B7879
:1013C0001A0040239A4313005A1E13005B009B1817
:1013D0009B009B180593002304930E236B4401226A
:1013E0001A80354A049BD3181B780133009AD3180E
:1013F0001B781B021AB23049049BCB181B781900CA
:10140000009B5B181B781BB213431AB203AB1A8004
:101410000E236B441B88002B23D00E246C4403AB9B
:101420001B881800FEF7B0FF03002380059BFE2BEE
:1014300010D8059B5A1C05925B00019AD3181B8893
:101440001800FEF7A1FF03001A000E236B441B884F
:10145000934201D0012300E00023002B08D0002399
:1014600027E003AB1B88154A934201D0002320E0FC
:10147000049B01330493049A0C21002391425B41A5
:10148000DBB2002B00D0ACE7009B1B781A00402396
:1014900013400DD00E236B441B88002B08D0059BF6
:1014A0005B00019AD3181B88002B01D0002300E0B9
:1014B0000123180006B010BD140A0100FFFF000050
:1014C00086B001900091009B1B781A003F231340C7
:1014D0005A1E13005B009B189B009B18059300236A
:1014E00004930E236B4401221A802C4A049BD318C8
:1014F0001B780133009AD3181B781B021AB22749B4
:10150000049BCB181B781900009B5B181B781BB23F
:1015100013431AB203AB1A800E236B441B88002BB3
:1015200014D0059BFE2B01D9002334E0059B5A1CE7
:1015300005925B00019AD3180E226A4403A9098818
:1015400011800E226A4412881A8006E003AB1B88C1
:10155000134A934201D000231DE0049B01330493FE
:10156000049A0C21002391425B41DBB2002B00D096
:10157000BBE7009B1B781A00402313400AD0059B51
:10158000FE2B01D9002306E0059B5B00019AD318CE
:1015900000221A800123180006B07047140A0100C7
:1015A000FFFF000088B00390029119006B460733DB
:1015B0001A706B4606330A1C1A70029B0D336A467A
:1015C000063212781A70029B0B330F221A70029B9C
:1015D0000C3300221A70029B1A3300221A70029BED
:1015E0001B3300221A706B4607331B785A1E1300F8
:1015F0005B009B189B009B18079316236B440022EB
:101600001A800023069316236B441B882C4A9342AE
:1016100009D0079B5A1C07925B00039AD218162325
:101620006B4412881A80274A069BD3181B781A002D
:10163000029B9B1816226A441288D2B21A70214A61
:10164000069BD3181B780133029AD31816226A44DA
:1016500012881212D2B21A7016236B441B88002B08
:1016600004D116236B44012252421A80069B013397
:101670000693069A0C21002391425B41DBB2002BBA
:1016800000D0C0E716236B441B880D4A934206D056
:10169000079B5B00039AD3181B88002B07D16B466E
:1016A00007336A460732127840210A431A70029BB8
:1016B0006A46073212781A70C04608B07047C046B2
:1016C000FFFF0000140A010000B58BB003900291E7
:1016D00001921A006B4602331A800299039B0B2277
:1016E0001800FFF717F86B4602331B88052B18D933
:1016F0006B4602331B885B109AB26B4602331B8821
:10170000DB039BB2D31899B2019B9A1C01921A88F1
:101710006B4602338A181A80019B1B88002B00D06D
:10172000E6E7072308936B4602331B88DBB20F22E0
:101730001340DAB227236B4430321A7027236B44EC
:101740001B78392B06D927236B4427226A44127849
:1017500007321A70089B5A1E089205AA272169446D
:101760000978D1546B4602336A4602321288120954
:101770001A806B4602331B88002B00D0D3E705AAE2
:10178000089BD3187E221A7000230793079A089BA0
:101790009A4209D2039A079BD3181B78202B03D0B7
:1017A000079B01330793F1E7079B5A1C0792039AA3
:1017B000D218089B072B05D8089B591C089105A92E
:1017C000CB5C00E020231370079B072B00D8EBE7CE
:1017D000C0460BB000BDC04684B001900F236B44DF
:1017E00000221A700B2302930F236B441B785B10AB
:1017F000DAB20F236B441B78DB01DBB2D318D9B20A
:10180000019B5A1C01921A780F236B448A181A7094
:10181000029B013B0293029B5A1E9341DBB2002BB9
:1018200000D0E1E70F236B441B78180004B0704729
:1018300010B586B0019017246C44019B002118005C
:10184000FFF7ECFB0300237017236B441B78002B7E
:1018500003D017236B441B78DAE005ABFF221A7024
:1018600015236B4405AA12781A70019B1A68019B14
:101870001B6917246C4419001000FEF7BDFF03001C
:10188000237017236B441B78002B00D0B8E0019B1A
:101890005B69049316236B44049A12781A7016231A
:1018A0006B441B78002B04D117236B4404221A705D
:1018B000ABE0049B0B331A780F236B443F210A40A3
:1018C0001A7016236B441B78E52B0AD00F236B4448
:1018D0001B780822134009D00F236B441B780F2B71
:1018E00004D015236B44FF221A707AE00F236B4457
:1018F0001B780F2B43D1019BDB69002B00D170E0DB
:1019000016236B441B784022134015D005AB049A74
:10191000527B1A7016236B4416226A4412784021B7
:101920008A431A7015236B4416226A4412781A707F
:10193000019BDA88019B1A8416226A4415236B44A2
:1019400012781B789A4215D1049B0D331B7805AA97
:1019500012789A420ED1019BDB69049A110018009B
:10196000FFF728FD031E05D015236B441B78013BB0
:10197000DAB200E0FF2215236B441A7031E0152320
:101980006B441B78002B0BD1049B1800FFF724FF3E
:1019900003001A0005AB1B78934201D1012300E03C
:1019A0000023002B2ED115236B44FF221A70019BBC
:1019B000012252421A84019B9B690B331B781A0047
:1019C000012313400AD1019B9969049B0B22180043
:1019D000FEF7D4FE031E01D1012300E00023002BFB
:1019E00012D117246C44019B00211800FFF7B0FBB3
:1019F0000300237017236B441B78002B05D134E7B9
:101A0000C04602E0C04600E0C04617236B441B7886
:101A1000180006B010BDC04610B586B00190152361
:101A20006B44FF221A7005ABFF221A7017236B4418
:101A300004221A70019B1B69002B00D1B6E0019BA8
:101A40001A68019B1B6917246C4419001000FEF7EB
:101A5000D3FE0300237017236B441B78002B00D0A8
:101A60009FE0019B5B69049316236B44049A1278F0
:101A70001A7016236B441B78002B04D117236B4478
:101A800004221A7092E0049B0B331A780F236B44E4
:101A90003F210A401A7016236B441B78E52B0FD0A8
:101AA00016236B441B782E2B0AD00F236B441B7814
:101AB0000822134009D00F236B441B780F2B04D04E
:101AC00015236B44FF221A705CE00F236B441B78D4
:101AD0000F2B3ED116236B441B784022134015D0A8
:101AE00005AB049A527B1A7016236B4416226A4483
:101AF000127840218A431A7015236B4416226A44D7
:101B000012781A70019BDA88019B1A8416226A44A3
:101B100015236B4412781B789A4215D1049B0D3320
:101B20001B7805AA12789A420ED1019BDB69049AB0
:101B300011001800FFF7C4FC031E05D015236B44E9
:101B40001B78013BDAB200E0FF2215236B441A70C8
:101B500018E015236B441B78002B09D1049B180057
:101B6000FFF73AFE03001A0005AB1B78934201D041
:101B7000012300E00023002B15D0019B01225242DB
:101B80001A8410E017246C44019B00211800FFF711
:101B9000DFFA0300237017236B441B78002B04D15A
:101BA00048E7C04602E0C04600E0C04617236B4449
:101BB0001B78002B02D0019B00221A6117236B4473
:101BC0001B78180006B010BD10B58CB00190019BB9
:101BD0009B690993019BDB690893099903AB0C226C
:101BE0001800FEF797FD03ABDB7A1A0001231340C0
:101BF0003FD0099B0B3300221A70019B0022DA614F
:101C00000BAB01221A800BAB1B88632B1AD80BABD2
:101C10001B88089A03A90998FFF756FD2F246C44E6
:101C2000019B1800FFF704FE030023702F236B4471
:101C30001B78002B05D10BAB1A880BAB01321A8035
:101C4000E1E7C0460BAB1B88642B01D1072348E1B9
:101C50002F236B441B78042B03D02F236B441B785A
:101C60003FE1099B0B3303AAD27A1A70019B089AB1
:101C7000DA6103ABDB7A1A000223134022D02A2355
:101C80006B4400221A802A236B441B885B00089A4D
:101C9000D3181B88002B07D02A236B441A882A23C9
:101CA0006B4401321A80EEE72A236B441B881933F8
:101CB0000D2118000BF0BCFF03001A002A236B440F
:101CC0001A8003E02A236B4401221A802F246C44DB
:101CD000019B00211800FFF7A1F9030023702F23B7
:101CE0006B441B78002B03D02F236B441B78F8E048
:101CF0000AAB00221A800BAB0AAA12881A80019B39
:101D00001A68019B1B692F246C4419001000FEF710
:101D100073FD030023702F236B441B78002B3AD1F3
:101D2000019B5A691F236B4412781A701F236B445E
:101D30001B78E52B04D01F236B441B78002B18D194
:101D40000BAB1B88002B03D10AAB019AD2881A80F7
:101D50000BAB0BAA128801321A800BAA2A236B4400
:101D600012881B88D31A5A425341DBB2002B03D08E
:101D700012E00BAB00221A802F246C44019B01213E
:101D80001800FFF7E5F9030023702F236B441B783D
:101D9000002B01D1B3E7C0462F236B441B78002BE7
:101DA00067D12A236B441B88012B62D92F246C44F2
:101DB0000AAB1A88019B11001800FFF72FF90300E6
:101DC00023702F236B441B78002B52D1019B9B69FE
:101DD0001E246C441800FFF7FFFC030023702A2325
:101DE0006B441A882A236B44013A1A80019B1A68B3
:101DF000019B1B692F246C4419001000FEF7FCFCAA
:101E0000030023702F236B441B78002B30D1019BE0
:101E1000D869019B59692A236B441B88DAB21E23B7
:101E20006B441B78FFF7BEFB019B1B6801221A71F4
:101E30002F246C44019B00211800FFF789F903004F
:101E400023702F236B441B78002B0DD12A236B4466
:101E50002A226A441288013A1A802A236B441B887A
:101E6000002B01D0012300E00023002B01D0BDE7AF
:101E7000C0462F236B441B78002B2FD1019B1A687F
:101E8000019B1B692F246C4419001000FEF7B4FC61
:101E9000030023702F236B441B78002B1ED1019B62
:101EA0005B690693069B202200211800FEF74EFC7A
:101EB000019B9969069B0B221800FEF72BFC069BE1
:101EC0000C331A00019B9B690B331B7818210B40C4
:101ED000DBB21370019B1B6801221A712F236B4424
:101EE0001B7818000CB010BD10B584B0019003AB86
:101EF000019AD2881A80019B1B8C2B4A934202D0F4
:101F0000019B1B8C01E003AB1B880F246C44019ADE
:101F100019001000FFF782F8030023700F236B44B1
:101F20001B78002B39D1019B1A68019B1B690F2478
:101F30006C4419001000FEF75FFC030023700F23B0
:101F40006B441B78002B1CD1019B5B69E5221A7046
:101F5000019B1B6801221A71019BDB8803AA12886E
:101F60009A4210D90F246C44019B00211800FFF7FE
:101F7000EFF8030023700F236B441B78002B03D171
:101F8000D1E7C04600E0C0460F236B441B78042B0A
:101F900003D10F236B4402221A700F236B441B786A
:101FA000180004B010BDC046FFFF000010B58AB095
:101FB00001900091009B1B680493049B1B782F2BBE
:101FC00003D0049B1B785C2B03D1049B0133049347
:101FD000F3E7019BDB69039300230593059B0693BD
:101FE000069B5A1C0692049AD3181A7809AB1A80D9
:101FF00009AB1B881F2B3FD909AB1B882F2B3BD06C
:1020000009AB1B885C2B37D0059BFE2B01D906231F
:10201000D0E109AB09AA1288FF210A401A8009AC55
:1020200009AB1B8801211800FEF756F90300238035
:1020300009AB1B88002B01D10623BBE109AB1B8830
:102040007F2B0AD809AB1A88AB4B11001800FEF79A
:10205000BDFB031E01D0012300E00023002B01D0B3
:102060000623A7E1059B5A1C05925B00039AD3182F
:1020700009AA12881A80B3E7049A069BD218009B1B
:102080001A6009AB1B881F2B01D8042200E0002234
:1020900026236B441A70059B002B16D0059B974A8C
:1020A000944663445B00039AD21809AB12881A80E5
:1020B00009AB1B88202B03D009AB1B882E2B03D127
:1020C000059B013B0593E6E7C046059B002B01D12C
:1020D00006236FE1059B5B00039AD31800221A8048
:1020E000019B9B690B2220211800FEF72FFB002388
:1020F0000693069B5B00039AD3181B88202B06D0FF
:10210000069B5B00039AD3181B882E2B03D1069BDA
:1021100001330693EDE7069B002B07D026236B4483
:1021200026226A44127803210A431A70059B002B69
:1021300013D0059B714A944663445B00039AD318FD
:102140001B882E2B09D0059B013B059326236B444E
:1021500026226A4412781A70E8E70023089327239E
:102160006B4400221A7008230793069B5A1C0692A0
:102170005B00039AD21809AB12881A8009AB1B883E
:10218000002B00D1B6E009AB1B88202B07D009AB90
:102190001B882E2B0CD1069A059B9A4208D0262329
:1021A0006B4426226A44127803210A431A70A0E085
:1021B000089A079B9A4203D2069A059B9A422AD113
:1021C000079B0B2B08D126236B4426226A441278E6
:1021D00003210A431A7098E0069A059B9A4207D099
:1021E00026236B4426226A44127803210A431A707C
:1021F000069A059B9A4200D986E0059B0693082320
:1022000008930B23079327236B4427226A441278F1
:1022100092001A706DE009AB1B887F2B1BD909ACAB
:1022200009AB1B8800211800FEF756F80300238035
:1022300009AB1B88002B06D009AB1B88803B304ABA
:10224000D25C09AB1A8026236B4426226A4412789A
:1022500002210A431A7009AB1B88002B08D009AB76
:102260001A88284B11001800FEF7B0FA031E01D09F
:10227000012300E00023002B0BD009AB5F221A8062
:1022800026236B4426226A44127803210A431A70DB
:1022900025E009AB1B88402B0CD909AB1B885A2BB6
:1022A00008D827236B4427226A44127802210A4364
:1022B0001A7014E009AB1B88602B10D909AB1B887E
:1022C0007A2B0CD827236B4427226A4412780121E9
:1022D0000A431A7009AB09AA1288203A1A80019B96
:1022E0009A69089B591C0891D31809AA1288D2B27E
:1022F0001A703AE7C04608E0240A0100FFFFFF7F9A
:102300006C0A0100300A0100C046019B9B691B78E2
:10231000E52B03D1019B9B6905221A70079B082BB3
:1023200006D127236B4427226A44127892001A7040
:1023300027236B441B780C2213400C2B06D0272339
:102340006B441B7803221340032B07D126236B44D5
:1023500026226A44127802210A431A7026236B440B
:102360001B78022213401DD127236B441B780322C4
:102370001340012B07D126236B4426226A4412788E
:1023800010210A431A7027236B441B780C22134038
:10239000042B07D126236B4426226A441278082195
:1023A0000A431A70019B9B690B3326226A441278F8
:1023B0001A70002318000AB010BDC04610B58AB0CC
:1023C00001900091009B09330893019B1B69002B2E
:1023D00000D1B6E0019B5B69059313236B44059A1A
:1023E000127B1A7000230993099B072B37D8059A93
:1023F000099BD2181F236B4412781A701F236B4459
:102400001B78202B2AD01F236B441B78052B03D16C
:102410001F236B44E5221A7013236B441B78082298
:10242000134010D01F236B441B78402B0BD91F2364
:102430006B441B785A2B06D81F236B441F226A4417
:10244000127820321A70089B5A1C08921F226A4484
:1024500012781A70099B01330993C5E7C046059BA2
:1024600008331B78202B38D0089B5A1C08922E2248
:102470001A7008230993099B0A2B2ED8059A099BE9
:10248000D2181F236B4412781A701F236B441B78D9
:10249000202B21D013236B441B781022134010D023
:1024A0001F236B441B78402B0BD91F236B441B78D5
:1024B0005A2B06D81F236B441F226A4412782032FD
:1024C0001A70089B5A1C08921F226A4412781A70CC
:1024D000099B01330993CEE7C046059BDA7A009B3E
:1024E0001A72059B1F331B781A06059B1E331B7837
:1024F0001B041343059A1D32127812021343059AE6
:102500001C3212781A43009B1A60059B19331B7802
:102510001B021AB2059B18331B781BB213431BB264
:102520009AB2009B9A80059B17331B781B021AB244
:10253000059B16331B781BB213431BB29AB2009B48
:10254000DA80089B00221A70009B9B69002B4FD0F9
:10255000009BDB69002B4BD0009B9B6903930023FE
:102560000993019B1B69002B3DD0019B1B8C224AC8
:10257000934238D0019BDB690693069B9A1C069216
:102580000A226A441B8813800A236B441B885A1E44
:102590009341DBB2002B26D00A246C440A236B44FF
:1025A0001B8800211800FDF797FE030023800A23F3
:1025B0006B441B88002B02D10023099313E0009B7E
:1025C000DB695A1E099B9A4202D8002309930AE04C
:1025D000099B5A1C0992039AD3180A226A4412884A
:1025E000D2B21A70C9E7039A099BD31800221A7055
:1025F000C0460AB010BDC046FFFF000010B584B051
:1026000001900091009B1B782F2B03D0009B1B781F
:102610005C2B02D1009B01330093019B00229A6046
:10262000009B1B781F2B0CD80F246C44019B0021AE
:102630001800FEF7F3FC03002370019B00225A618F
:1026400058E00F246C446A46019B11001800FFF704
:10265000ADFC030023700F236B441B78002B42D189
:102660000F246C44019B1800FFF7E2F8030023706D
:10267000019B9A690E236B44D27A1A700F236B4424
:102680001B78002B0FD00F236B441B78042B2CD10D
:102690000E236B441B780422134028D10F236B4474
:1026A00005221A7023E00E236B441B78042213408A
:1026B0001FD1019B5B690293029B0B331B781A00AD
:1026C0001023134004D10F236B4405221A7011E02C
:1026D000019B1B68029A11001800FEF723FE0200FE
:1026E000019B9A60ADE7C04604E0C04602E0C046E8
:1026F00000E0C0460F236B441B78180004B010BDE7
:1027000000B583B001900091019B5878019B303354
:102710001900009A0123FDF7CFFE03005A1E9341D2
:10272000DBB2002B01D003234BE0019B264A9446E9
:10273000634401331B781B021AB2019B22495B5C84
:102740001BB213431BB2214A934201D0022338E04B
:10275000019B663303331B781A06019B66330233F1
:102760001B781B041343019A66320132127812025D
:102770001343019A6621525C13431B021B0A144A3D
:10278000934201D100231CE0019B823303331B7869
:102790001A06019B823302331B781B041343019AF0
:1027A00082320132127812021343019A8221525C62
:1027B00013431B021B0A064A934201D1002300E087
:1027C0000123180003B000BD2E02000055AAFFFF30
:1027D0004641540010B592B0039002916B46073306
:1027E0001A70039B1B680B930B9B1B78303B109359
:1027F000109B092B0BD80B9B01331B783A2B06D16E
:102800000B9B02330B93039B0B9A1A6001E000238E
:102810001093029B00221A60109B002B01D00B2307
:10282000AAE2C54B109A9200D3580A930A9B002B38
:1028300001D10C23A0E2029B0A9A1A600A9B1B7822
:10284000002B1DD00A9B5B7827246C441800FDF7F1
:102850000BFE0300237027236B441B7801221340D7
:102860000ED16B4607331B78002B07D027236B4410
:102870001B780422134001D00A237DE200237BE26F
:102880000A9B00221A70109BDAB20A9B5A700A9BAC
:102890005B7827246C441800FDF7BEFD030023700D
:1028A00027236B441B780122134001D0032363E2EA
:1028B0006B4607331B78002B07D027236B441B780C
:1028C0000422134001D00A2356E200230F93472429
:1028D0006C440F9A0A9B11001800FFF711FF0300C8
:1028E000237047236B441B78012B3BD146236B4459
:1028F00000221A7046236B441B78002B06D0462317
:102900006B441A7846236B44013A1A7046236B4491
:102910001B781B01BF33FF3330330A9AD318089357
:10292000089B04331B78002B1CD0089B0B331B78AF
:102930001A06089B0A331B781B041343089A0932B2
:10294000127812021343089A0832127813430F9335
:1029500047246C440F9A0A9B11001800FFF7D0FE21
:102960000300237047236B441B78032B01D1012301
:1029700002E247236B441B78002B01D00D23FBE1BF
:102980000A9B3C229B5C1B021AB20A9B3B215B5CAC
:102990001BB213431AB280239B009A4201D00D232D
:1029A000EAE10A9B47229B5C1B021AB20A9B462162
:1029B0005B5C1BB213431BB29BB20E930E9B002BAE
:1029C00012D10A9B57229B5C1A060A9B56215B5C1C
:1029D0001B0413430A9A5521525C120213430A9AAC
:1029E0005421525C13430E930A9B0E9ADA611F2303
:1029F0006B440A9A4021525C1A700A9B1F226A4457
:102A00001278DA701F236B441B78012B06D01F232A
:102A10006B441B78022B01D00D23ADE11F236B44C7
:102A20001A780E9B53430E931F236B440A9A3D2141
:102A3000525C1A700A9B1F226A4412789A701F23F4
:102A40006B441B78002B08D01F236B441B781F227C
:102A50006A441278013A134001D00D238CE10A9B9D
:102A600042229B5C1B021AB20A9B41215B5C1BB297
:102A700013431BB29AB20A9B1A810A9B1B891A0044
:102A80000F23134001D00D2376E10A9B44229B5C67
:102A90001B021AB20A9B43215B5C1BB213431BB29D
:102AA0009BB20D930D9B002B12D10A9B53229B5C72
:102AB0001A060A9B52215B5C1B0413430A9A51219C
:102AC000525C120213430A9A5021525C13430D9335
:102AD0000A9B3F229B5C1B021AB20A9B3E215B5C55
:102AE0001BB213431AB207AB1A8007AB1B88002B2B
:102AF00001D10D2340E107AB1A880E9BD3180A9A27
:102B00001289120992B29B1806930D9A069B9A425B
:102B100001D20D2330E10D9A069BD21A0A9B9B78B5
:102B2000190010000AF0FAFF03000593059B002B23
:102B300004D10D2320E1C0461C07001047236B443D
:102B400001221A70059B8E4A934203D947236B4496
:102B500002221A70059B8B4A934203D947236B4488
:102B600003221A70059B9A1C0A9B9A610F9A069B76
:102B7000D2180A9B9A6207AB1A880F9BD2180A9B3D
:102B80001A6247236B441B78032B1ED10A9B1B89B7
:102B9000002B01D00D23EFE00A9B5F229B5C1A06FD
:102BA0000A9B5E215B5C1B0413430A9A5D21525C05
:102BB000120213430A9A5C21525C1A430A9B5A621E
:102BC0000A9B9B699B000C9320E00A9B1B89002BAE
:102BD00001D10D23D0E00A9B1A6A0E9BD2180A9BE2
:102BE0005A6247236B441B78022B03D10A9B9B69D3
:102BF0005B000AE00A9B9A6913005B009B185A0865
:102C00000A9B9B6901210B40D3180C930A9BDA693C
:102C10000C9B5D498C4663445B0A9A4201D20D23AA
:102C2000AAE00A9B012252421A610A9B0022DA6042
:102C300047236B441B78032B00D087E00A9B0022BC
:102C40005A710A9B61229B5C1B021AB20A9B60218B
:102C50005B5C1BB213431BB29BB21A000F9BD218D2
:102C60000A9B5A610A9B58780A9B303319000A9BC9
:102C70005A690123FDF720FC031E3AD10A9B434AFF
:102C80009B5C1B021AB20A9B41495B5C1BB213435B
:102C90001BB2404A93422CD10A9B33229B5C1A06FA
:102CA0000A9B32215B5C1B0413430A9A3121525C5C
:102CB000120213430A9A3021525C1343364A93425C
:102CC00017D10A9B354A9B5C1A060A9B34495B5C08
:102CD0001B0413430A9A3349525C120213430A99A4
:102CE000852292008A5C13432F4A934201D101232B
:102CF00000E00023002B29D00A9B2C4A9B5C1A067B
:102D00000A9B2B495B5C1B0413430A9A2949525CBA
:102D1000120213430A99872292008A5C1A430A9B83
:102D2000DA600A9B244A9B5C1A060A9B23495B5C77
:102D30001B0413430A9A2249525C120213430A9954
:102D4000862292008A5C1A430A9B1A610A9B4722D8
:102D50006A4412781A701B4B1B8801339AB2194BC4
:102D60001A80184B1A880A9BDA800A9B0022DA62C2
:102D70000A9B00221A710023180012B010BDC04631
:102D8000F50F0000F5FF0000FF0100002F0200001A
:102D90002E02000055AAFFFF5252614117020000A7
:102DA0001602000015020000727241611F0200004D
:102DB0001E0200001D0200001B0200001A0200009B
:102DC000190200002007001000B585B00190019B9A
:102DD0000393039B1B68002B0BD0039B1B681B7882
:102DE000002B06D0039B1B68DA88039B9B889A42C2
:102DF00001D0092311E0039B1B685B781800FDF7E5
:102E000033FB03001A00012313405A1E9341DBB227
:102E1000002B01D0032300E00023180005B000BD03
:102E200084B0020000916B4607331A706B4607337B
:102E30001B78002B01D00B231AE06B4607331A785E
:102E40000D4B9200D3580393039B002B02D0039B9E
:102E500000221A70009B002B02D0009B00221A70E7
:102E60006B4607331A78044B92000099D150002327
:102E7000180004B07047C0461C07001010B594B08D
:102E8000039002916B4607331A70039B002B01D10C
:102E9000092367E1039B00221A606B4607336A46E9
:102EA000073212781F210A401A706B4607331B78CD
:102EB00001229343DAB24F246C4407A902AB1800F5
:102EC000FFF788FC030023704F236B441B78002B13
:102ED00000D044E107AB04AA9A6107ABA34ADA61C8
:102EE000029A4F246C4407AB11001800FFF786FBD1
:102EF0000300237007AB5B6912934F236B441B786D
:102F0000002B06D1129B002B03D14F236B440622CA
:102F10001A706B4607331B781C22134000D1AAE0BD
:102F20004F236B441B78002B18D04F236B441B7826
:102F3000042B07D14F246C4407AB1800FEF744FE66
:102F4000030023706B4607336A4607321278082164
:102F50000A431A7007AB5B69129315E0129B0B339F
:102F60001B781A001123134004D04F236B4407220F
:102F70001A7009E06B4607331B780422134003D014
:102F80004F236B4408221A704F236B441B78002B8D
:102F900000D092E06B4607331B780822134000D123
:102FA0008BE002F07DF803001193129B0E33119A0F
:102FB000D2B21A70129B0F33119A92B21212D2B27D
:102FC0001A70129B1033119A120CD2B21A70129B03
:102FD0001133119A120ED2B21A70129B0B330022C7
:102FE0001A70129B1C3300221A70129B1D33002290
:102FF0001A70129B1E3300221A70129B1F3300227C
:103000001A7007AB1B68129A11001800FEF78AF9B4
:1030100003001093129B00211800FEF7ABF907ABD9
:103020001B6801221A71109B002B46D007AB1B684E
:10303000DB6A119307AB1B684F246C44109A110094
:103040001800FDF7F7FE030023704F236B441B7835
:10305000002B32D107AB1B68109A013ADA6007AB3C
:103060001B684F246C44119A11001800FDF7C4FB33
:103070000300237021E04F236B441B78002B1CD1ED
:10308000129B0B331B781A001023134004D04F23DC
:103090006B4404221A7010E06B4607331B7802223F
:1030A00013400AD0129B0B331B781A0001231340E4
:1030B00003D04F236B4407221A704F236B441B78B5
:1030C000002B15D16B4607331B780822134007D01D
:1030D0006B4607336A460732127820210A431A707A
:1030E00007AB1B68DA6A039BDA61039B129A1A62C8
:1030F0004F236B441B78002B31D1039B6A46073268
:1031000012789A7107AB1B68129A11001800FEF72B
:1031100009F90200039B1A61129B1F331B781A06E0
:10312000129B1E331B781B041343129A1D32127814
:1031300012021343129A1C3212781A43039BDA606C
:10314000039B00229A60039B00229A6107AB1A68D6
:10315000039B1A6007AB1B68DA88039B9A804F2396
:103160006B441B78180014B010BDC0462407001033
:1031700010B58CB00390029101920093029B0893CA
:10318000009B00221A601F246C44039B1800FFF769
:103190001BFE030023701F236B441B78002B03D0FE
:1031A0001F236B441B784FE1039B9B795BB2002B81
:1031B00001DA022348E1039B9B791A0001231340A3
:1031C00001D1072340E1039BDA68039B9B68D31A74
:1031D0000693019A069B9A4201D9069B0193019B93
:1031E000002B00D12FE1039B9B68DB05DB0D00D09A
:1031F000F9E0039B9B685B0ADAB2039B1B689B7830
:10320000013BD9B217236B440A401A7017236B4451
:103210001B78002B2ED1039B9B68002B03D1039BB3
:103220001B690B9309E0039B1A68039B5B691900F8
:103230001000FDF725FC03000B930B9B012B09D815
:10324000039B9B79802252421343DAB2039B9A710B
:103250000223F9E00B9B013309D1039B9B79802268
:1032600052421343DAB2039B9A710123ECE0039BB1
:103270000B9A5A61039B1A68039B5B691900100043
:10328000FDF7E4FB03000493049B002B09D1039B8F
:103290009B79802252421343DAB2039B9A71022334
:1032A000D2E017236B441B78049AD3180493019B34
:1032B0005B0A0993099B002B4BD017236B441A78A8
:1032C000099BD218039B1B689B789A4208D9039BE1
:1032D0001B689B781A0017236B441B78D31A099339
:1032E000039B1B685878099BDBB2049A0899FDF789
:1032F000E3F803005A1E9341DBB2002B09D0039B75
:103300009B79802252421343DAB2039B9A710123C4
:103310009AE0039B9B791A004023134015D0039B2E
:103320009A69049BD21A099B9A420ED2039B9A690E
:10333000049BD31A5B02089AD018039B243319000C
:1033400080239B001A00FDF7E5F9099B5B020A93B5
:1033500064E0039B9A69049B9A4241D0039B9B794A
:103360001A004023134021D0039B1B685878039B0D
:1033700024331900039B9A690123FDF7F9F8030030
:103380005A1E9341DBB2002B09D0039B9B7980220C
:1033900052421343DAB2039B9A71012354E0039B18
:1033A0009B7940229343DAB2039B9A71039B1B687B
:1033B0005878039B24331900049A0123FDF77CF805
:1033C00003005A1E9341DBB2002B09D0039B9B796B
:1033D000802252421343DAB2039B9A71012333E0F5
:1033E000039B049A9A61039B9B68DB05DB0D80229B
:1033F0009200D31A0A930A9A019B9A4201D9019B1F
:103400000A93039B9B68DB05DB0D2033039AD318DB
:10341000191D0A9A089B1800FDF77CF9089A0A9B67
:10342000D3180893039B9A680A9BD218039B9A604F
:10343000009B1A680A9BD218009B1A60019A0A9B8B
:10344000D31A0193CBE6002318000CB010BDC04680
:1034500010B58AB00390029101920093029B0693EB
:10346000009B00221A6017246C44039B1800FFF78E
:10347000ABFC0300237017236B441B78002B03D095
:1034800017236B441B7880E1039B9B795BB2002B75
:1034900001DA022379E1039B9B791A00022313408E
:1034A00001D1072371E1039BDA68019BD218039BCA
:1034B000DB689A4201D200230193019B002B00D1CB
:1034C00051E1039B9B68DB05DB0D00D013E1039BFF
:1034D0009B685B0ADAB2039B1B689B78013BD9B2FD
:1034E00016236B440A401A7016236B441B78002B7A
:1034F00040D1039B9B68002B11D1039B1B6909934F
:10350000099B002B15D1039B1B6800211800FDF7B8
:10351000EDFC03000993039B099A1A6109E0039BE0
:103520001A68039B5B6919001000FDF7DFFC0300BC
:103530000993099B002B00D114E1099B012B09D1B0
:10354000039B9B79802252421343DAB2039B9A7108
:1035500002231AE1099B013309D1039B9B79802245
:1035600052421343DAB2039B9A7101230DE1039B8C
:10357000099A5A61039B9B791A004023134021D07A
:10358000039B1B685878039B24331900039B9A699B
:103590000123FCF7EDFF03005A1E9341DBB2002B21
:1035A00009D0039B9B79802252421343DAB2039BDA
:1035B0009A710123E9E0039B9B7940229343DAB29D
:1035C000039B9A71039B1A68039B5B6919001000A7
:1035D000FDF73CFA03000493049B002B09D1039BE5
:1035E0009B79802252421343DAB2039B9A710223E1
:1035F000CBE016236B441B78049AD3180493019BE9
:103600005B0A0793079B002B4CD016236B441A7858
:10361000079BD218039B1B689B789A4208D9039B8F
:103620001B689B781A0016236B441B78D31A0793E8
:10363000039B1B685878079BDBB2049A0699FCF73A
:1036400097FF03005A1E9341DBB2002B09D0039B66
:103650009B79802252421343DAB2039B9A71012371
:1036600093E0039B9A69049BD21A079B9A4215D256
:10367000039B24331800039B9A69049BD31A5B02B3
:10368000069AD11880239B001A00FDF743F8039B8C
:103690009B7940229343DAB2039B9A71079B5B02AA
:1036A00008934AE0039B9A69049B9A4220D0039BAB
:1036B0009A68039BDB689A420DD2039B1B6858787B
:1036C000039B24331900049A0123FCF7F5FE031E23
:1036D00001D0012300E00023002B09D0039B9B793C
:1036E000802252421343DAB2039B9A7101234CE0C9
:1036F000039B049A9A61039B9B68DB05DB0D802288
:103700009200D31A0893089A019B9A4201D9019B0F
:103710000893039B9B68DB05DB0D2033039AD318CA
:103720000433089A06991800FCF7F4FF039B9B7971
:1037300040221343DAB2039B9A71069A089BD3186E
:103740000693039B9A68089BD218039B9A60009B80
:103750001A68089BD218009B1A60019A089BD31A1A
:103760000193AAE6C046039B9A68039BDB689A42D2
:1037700003D9039B9A68039BDA60039B9B79202201
:103780001343DAB2039B9A71002318000AB010BDEC
:1037900010B586B0019017246C44019B1800FFF708
:1037A00013FB0300237017236B441B78002B00D0FE
:1037B000A2E0019B9B791A002023134000D19BE0DB
:1037C000019B9B791A004023134019D0019B1B6871
:1037D0005878019B24331900019B9A690123FCF757
:1037E000C7FE03005A1E9341DBB2002B01D0012318
:1037F00085E0019B9B7940229343DAB2019B9A7149
:10380000019B1A68019BDB6917246C4419001000A6
:10381000FCF7F2FF0300237017236B441B78002B87
:103820006AD1019B1B6A0493049B0B33049A0B32ED
:10383000127820210A43D2B21A70049B1C331A005A
:10384000019BDB68DBB21370049B1D331A00019BE4
:10385000DB689BB21B12DBB21370049B1E331A0091
:10386000019BDB681B0CDBB21370049B1F331A0037
:10387000019BDB681B0EDBB21370019B1A69049B72
:1038800011001800FDF776FD01F00AFC0300039318
:10389000049B1633039AD2B21A70049B1733039A0F
:1038A00092B21212D2B21A70049B1833039A120CFD
:1038B000D2B21A70049B1933039A120ED2B21A7044
:1038C000049B123300221A70049B133300221A70D7
:1038D000019B9B7920229343DAB2019B9A71019B51
:1038E0001B6801221A71019B1B6817246C44180085
:1038F000FCF7E8FF0300237017236B441B781800C4
:1039000006B010BD10B584B001900F246C44019B2B
:103910001800FFF73DFF030023700F236B441B7853
:10392000002B02D1019B00221A600F236B441B78ED
:10393000180004B010BDC04610B588B001900091C9
:1039400017246C44019B1800FFF73EFA0300237014
:1039500017236B441B78002B03D017236B441B7871
:1039600053E1019B9B795BB2002B01DA02234CE10E
:10397000019BDA68009B9A4208D2019B9B791A004E
:103980000223134002D1019BDB680093019B9B68DB
:10399000049300230693019B069A9A60009B002BD8
:1039A00000D1CFE0019B1B689B785B020393049BD3
:1039B000002B20D0009B013B039918000AF0AEF8C1
:1039C00003001C00049B013B039918000AF0A6F8B1
:1039D00003009C420FD3049B013B039A52421A40BE
:1039E000019B9A60019B9B68009AD31A0093019BEC
:1039F0005B6907932DE0019B1B690793079B002BD5
:103A000024D1019B1B6800211800FDF76FFA030009
:103A10000793079B012B09D1019B9B79802252427E
:103A20001343DAB2019B9A710223EEE0079B013344
:103A300009D1019B9B79802252421343DAB2019B48
:103A40009A710123E1E0019B079A1A61019B079A91
:103A50005A61079B002B00D174E0009A039B9A42A5
:103A60004BD9019B9B791A00022313400ED0019B76
:103A70001B68079A11001800FDF738FA0300079336
:103A8000079B002B0BD1039B009336E0019B1B6827
:103A9000079A11001800FCF7F3FF03000793079B38
:103AA000013309D1019B9B79802252421343DAB240
:103AB000019B9A710123A8E0079B012B05D9019B6B
:103AC0001B689A69079B9A4209D8019B9B798022BF
:103AD00052421343DAB2019B9A71022395E0019B93
:103AE000079A5A61019B9A68039BD218019B9A60BE
:103AF000009A039BD31A0093AFE7019B9A68009B3F
:103B0000D218019B9A60009BDB05DB0D1AD0019B4C
:103B10001B68079A11001800FCF798FF0300069332
:103B2000069B002B09D1019B9B79802252421343B3
:103B3000DAB2019B9A71022367E0009B5B0A069A46
:103B4000D3180693019B9B68DB05DB0D49D0019BD5
:103B50009A69069B9A4244D0019B9B791A004023A4
:103B6000134021D0019B1B685878019B2433190016
:103B7000019B9A690123FCF7FBFC03005A1E934149
:103B8000DBB2002B09D0019B9B7980225242134368
:103B9000DAB2019B9A71012337E0019B9B794022A5
:103BA0009343DAB2019B9A71019B1B685878019B81
:103BB00024331900069A0123FCF77EFC03005A1EE9
:103BC0009341DBB2002B09D0019B9B7980225242AA
:103BD0001343DAB2019B9A71012316E0019B069A06
:103BE0009A61019B9A68019BDB689A420AD9019B02
:103BF0009A68019BDA60019B9B7920221343DAB219
:103C0000019B9A7117236B441B78180008B010BDF4
:103C100010B588B001900091019B002B01D10923C0
:103C20006BE001991F246C446B4600221800FEF7DC
:103C3000D1FD03002370019B1B6806931F236B4477
:103C40001B78002B53D1019B03AA9A61019B2C4A3C
:103C5000DA61009A1F246C44019B11001800FEF7E2
:103C6000CDFC030023701F236B441B78002B2CD149
:103C7000019B5B69002B16D0019B5B690B331B78A2
:103C80001A00102313400AD0019B5A69069B1100A9
:103C90001800FDF747FB0200019B9A6003E01F2319
:103CA0006B4405221A701F236B441B78002B0CD128
:103CB000069BDA88019B9A801F246C44019B00219B
:103CC0001800FDF7ABF9030023701F236B441B782A
:103CD000042B03D11F236B4405221A701F236B444E
:103CE0001B78002B06D0019B00221A6002E0019B8A
:103CF00000221A601F236B441B78180008B010BD07
:103D00002407001010B586B00190009117246C4470
:103D1000019B1800FFF758F80300237017236B442A
:103D20001B78002B46D1009B002B09D117246C4433
:103D3000019B00211800FDF771F90300237039E0A1
:103D4000019B02AA9A61019B1D4ADA6117246C4407
:103D5000019B1800FDF760FE0300237017236B44DE
:103D60001B78042B06D1019B00221A6117236B4498
:103D700000221A7017236B441B78002B1AD1009A6B
:103D8000019B11001800FEF719FB17246C44019BDE
:103D900000211800FDF7DCF90300237017236B44A2
:103DA0001B78042B06D1019B00221A6117236B4458
:103DB00000221A7017236B441B78180006B010BD40
:103DC0002407001010B59AB0019067246C440EA926
:103DD00001AB01221800FEF7FDFC030023706723EE
:103DE0006B441B78002B00D0A7E00EAB02AA9A61AF
:103DF0000EAB554ADA61019A67246C440EAB110090
:103E00001800FEF7FBFB0300237067236B441B784D
:103E1000002B00D091E00EAB5B691893189B002B30
:103E200004D167236B4406221A700AE0189B0B33F7
:103E30001B781A000123134003D067236B44072229
:103E40001A700EAB1B68189A11001800FDF76AFA79
:103E50000300179367236B441B78002B3FD1189BFB
:103E60000B331B781A001023134038D0179B012BFB
:103E700004D867236B4402221A7030E00EA905AB08
:103E800024221800FCF746FC05AB179A9A606724B9
:103E90006C4405AB02211800FDF7C0F80300237045
:103EA00067236B441B78002B19D167246C4405AB46
:103EB0001800FDF7B1FD0300237067236B441B78E6
:103EC000002B03D167236B4407221A7067236B44CE
:103ED0001B78042B03D167236B4400221A706723DD
:103EE0006B441B78002B28D167246C440EAB180060
:103EF000FDF7FAFF0300237067236B441B78002B48
:103F00001BD1179B002B0AD00EAB1B6867246C4497
:103F1000179A11001800FCF78DFF03002370672328
:103F20006B441B78002B08D10EAB1B6867246C44D4
:103F30001800FCF7C7FC0300237067236B441B7851
:103F400018001AB010BDC0462407001010B594B078
:103F5000019001F0A5F8030010934F246C4405A9CB
:103F600001AB01221800FEF735FC030023704F233C
:103F70006B441B78002B00D035E105AB02AA9A6197
:103F800005AB9C4ADA61019A4F246C4405AB1100E1
:103F90001800FEF733FB030023704F236B441B789C
:103FA000002B03D14F236B4408221A704F236B441C
:103FB0001B78042B00D016E105AB1B68002118000C
:103FC000FCF794FF03000F934F236B4400221A70F9
:103FD0000F9B002B03D14F236B4407221A700F9BBA
:103FE000012B03D14F236B4402221A700F9B013324
:103FF00003D14F236B4401221A704F236B441B786B
:10400000002B09D105AB1B684F246C44002118001C
:10401000FCF7F2FB030023704F236B441B78002B4B
:1040200000D094E005AB1B680F9A11001800FCF754
:104030000DFD0300129305AB1B6830330E938023F4
:104040009A000E9B00211800FCF780FB0E9B0B22B0
:1040500020211800FCF77AFB0E9B2E221A700E9B73
:104060000B3310221A700E9B1633109AD2B21A70AC
:104070000E9B1733109A92B21212D2B21A700E9B84
:104080001833109A120CD2B21A700E9B1933109A70
:10409000120ED2B21A700F9A0E9B11001800FDF783
:1040A00069F90E9B20330E9920221800FCF732FB91
:1040B0000E9B21332E221A7005AB9B68119305AB22
:1040C0001B681B78032B07D105AB1B685A6A119B31
:1040D0009A4201D1002311930E9B2033119A1100B3
:1040E0001800FDF747F905AB1A684E236B44927828
:1040F0001A704E236B441B78002B28D005AB1B682D
:10410000129A511C1291DA6205AB1B6801221A71D6
:1041100005AB1B684F246C4400211800FCF76CFBB6
:10412000030023704F236B441B78002B0ED1802398
:104130009A000E9B00211800FCF708FB4E236B44ED
:104140001A784E236B44013A1A70D2E7C0464F23C7
:104150006B441B78002B07D14F246C4405AB18002F
:10416000FDF732FD030023704F236B441B78002BB7
:1041700007D005AB1B680F9A11001800FCF75AFE18
:1041800031E005AB5B690E930E9B0B3310221A7066
:104190000E9B1633109AD2B21A700E9B1733109AD8
:1041A00092B21212D2B21A700E9B1833109A120CDD
:1041B000D2B21A700E9B1933109A120ED2B21A7024
:1041C0000F9A0E9B11001800FDF7D4F805AB1B6881
:1041D00001221A7105AB1B684F246C441800FCF7D0
:1041E00071FB030023704F236B441B78180014B03D
:1041F00010BDC0462407001010B594B000926B4665
:104200000733021C1A706B4606330A1C1A706B4681
:1042100007331B78002B02D00B2300F0D1FC6B4638
:1042200006331B78012B02D9132300F0C9FC009B35
:10423000013B009A134002D0132300F0C1FC6B46EF
:1042400007331A78AD4B9200D3580C930C9B002B7C
:1042500002D10C2300F0B4FC0C9B00221A702F2317
:104260006B446A46073212781A702E236B44002280
:104270001A702D246C442F236B441B781800FCF714
:10428000CBF8030023702D236B441B7801221340CD
:1042900002D0032300F094FC2D236B441B780422EE
:1042A000134002D00A2300F08BFC03AA2F236B4497
:1042B0001B7801211800FCF7B7F9031E02D1039BFC
:1042C0007F2B01D8012300E00023002B02D0012323
:1042D00000F076FC6B4606331B78002B01D00023E0
:1042E00000E03F230A93039A0A9BD31A0393009B8F
:1042F000002B1AD1039AFA23D900100009F00EFC02
:1043000003000993002311937D4B119A5200D35A55
:104310001A00099B9A4203D9119B01331193F3E7C9
:10432000784B119A5200D35A0093009B5B0A00937A
:10433000009B002B01D101230093009B802B01D90E
:1043400080230093039B0099180009F0E7FB03000A
:1043500008934F236B4401221A70089B6A4A9342C8
:1043600003D94F236B4402221A70089B674A934279
:1043700003D94F236B4403221A704F236B441B78DD
:10438000032B0AD1089B82339B00013B5B0A0E93EF
:1043900020230F9300230D931AE04F236B441B78C7
:1043A000012B07D1089A13005B009B1801335B08AF
:1043B000033302E0089B02335B000E930E9B544ACA
:1043C000944663445B0A0E9301230F9320230D93BD
:1043D0000A9A0F9BD3181093109A0E9BD318079329
:1043E000079A0D9BD3180693069A009BD2180A9B36
:1043F000D21A039B9A4202D90E2300F0E1FB04AAD1
:104400002F236B441B7803211800FCF70DF9031EC2
:1044100007D1049B002B04D0049A80231B029A42EC
:1044200001D9012300E00023002B01D001230493D4
:10443000049A069BD318013B049A524213400493FA
:10444000049A069BD31A04934F236B441B78032BC7
:1044500008D1049B0F9AD3180F93049B109AD3187A
:10446000109303E0049B0E9AD3180E93039A0F9BAC
:10447000D21A0E9BD21A0D9BD31A0099180009F07C
:104480004DFB030008934F236B441B78022B03D191
:10449000089B1D4A934208D94F236B441B78032B7A
:1044A00005D1089B194A934201D80E2388E34F2374
:1044B0006B441B78012B02D0022B05D00FE04D235B
:1044C0006B4401221A700EE0039B124A934201D8FA
:1044D000042200E006224D236B441A7003E04D23B2
:1044E0006B440C221A706B4606331B78002B13D0DA
:1044F0004E236B44F0221A708FE0C0461C07001058
:10450000EC0A0100040B0100F50F0000F5FF0000AC
:10451000FF010000FFFF00000C9B303318008023D8
:104520009B001A000021FCF711F90C9B3033BF33BC
:10453000FF330593059B013301221A70059B02335B
:1045400001221A70059B033300221A70059B043365
:104550004D226A4412781A70059B0533FE221A70A8
:10456000039A0A9BD318EF49180009F0D7FA030001
:104570000493059B0633049A9208D2B23F210A4362
:10458000D2B21A70059B0733049AD2B21A70059BF7
:1045900008333F221A70059B093300221A70059BCD
:1045A0000A3300221A70059B0B3300221A70059BF8
:1045B0000C33039AD2B21A70059B0D33039A92B250
:1045C0001212D2B21A70059B0E33039A120CD2B299
:1045D0001A70059B0F33039A120ED2B21A700C9BFD
:1045E000D14A552199540C9BD04AAA2199540C9B2D
:1045F000303319002F236B44187801230022FBF776
:10460000B7FF03005A1E9341DBB2002B01D00123F8
:10461000D6E24E236B44F8221A700C9B303305937C
:1046200080239A00059B00211800FCF78FF8C049F1
:10463000059B0B221800FCF76DF880239B0011935B
:10464000059B0B33119AD2B21A70059B0C33119A49
:1046500092B21212D2B21A70059B0D33009AD2B2E6
:104660001A70059B0E330F9AD2B21A70059B0F3346
:104670000F9A92B21212D2B21A70059B1033012215
:104680001A704F236B441B78032B01D1002301E0E8
:1046900080239B001193059B1133119AD2B21A709B
:1046A000059B1233119A92B21212D2B21A70039B66
:1046B000A04A93420CD8059B1333039AD2B21A70C6
:1046C000059B1433039A92B21212D2B21A7017E0F9
:1046D000059B2033039AD2B21A70059B2133039AAB
:1046E00092B21212D2B21A70059B2233039A120CA4
:1046F000D2B21A70059B2333039A120ED2B21A70EB
:10470000059B15334E226A4412781A70059B1833A4
:104710003F221A70059B193300221A70059B1A3329
:10472000FF221A70059B1B3300221A70059B1C3355
:104730000A9AD2B21A70059B1D330A9A92B21212CB
:10474000D2B21A70059B1E330A9A120CD2B21A709A
:10475000059B1F330A9A120ED2B21A7000F0A0FC09
:10476000030004934F236B441B78032B5FD1059BFD
:104770004333049AD2B21A70059B4433049A92B21E
:104780001212D2B21A70059B4533049A120CD2B29F
:104790001A70059B4633049A120ED2B21A70059B0A
:1047A00024330E9AD2B21A70059B25330E9A92B218
:1047B0001212D2B21A70059B26330E9A120CD2B284
:1047C0001A70059B27330E9A120ED2B21A70059BEF
:1047D0002C3302221A70059B2D3300221A70059B80
:1047E0002E3300221A70059B2F3300221A70059B6E
:1047F000303301221A70059B313300221A70059B59
:10480000323306221A70059B333300221A70059B3F
:10481000403380221A70059B423329221A70059B6F
:104820004733454913221800FBF774FF32E0059B1C
:104830002733049AD2B21A70059B2833049A92B295
:104840001212D2B21A70059B2933049A120CD2B2FA
:104850001A70059B2A33049A120ED2B21A70059B65
:1048600016330E9AD2B21A70059B17330E9A92B273
:104870001212D2B21A70059B243380221A70059B43
:10488000263329221A70059B2B332C49132218003A
:10489000FBF740FF059BFF33FF3355221A70059B42
:1048A000274A94466344AA221A700A9A05992F232C
:1048B0006B4418780123FBF75BFE03005A1E9341FB
:1048C000DBB2002B01D001237AE14F236B441B782C
:1048D000032B08D10A9B9A1D05992F236B44187846
:1048E0000123FBF745FE109B129300231193119BAC
:1048F000002B00D0B8E080239A00059B002118000F
:10490000FBF724FF4E236B441B7804934F236B4427
:104910001B78032B34D04F236B441B78012B13D10E
:10492000084B12E0C13E00002E0200002F020000E2
:10493000380A0100FFFF0000440A0100580A010084
:10494000FF01000000FFFF009F4B049A13430493F4
:10495000049BDAB2059B1A70059B0133049A92B24C
:104960001212D2B21A70059B0233049A120CD2B200
:104970001A70059B0333049A120ED2B21A703AE0F1
:10498000049B914A13430493049BDAB2059B1A706B
:10499000059B0133049A92B21212D2B21A70059B8F
:1049A0000233049A120CD2B21A70059B0333049A94
:1049B000120ED2B21A70059B0433FF221A70059BA7
:1049C0000533FF221A70059B0633FF221A70059BE0
:1049D0000733FF221A70059B0833FF221A70059BCC
:1049E0000933FF221A70059B0A33FF221A70059BB8
:1049F0000B330F221A70129A531C129305992F230E
:104A00006B4418780123FBF7B3FD03005A1E934152
:104A1000DBB2002B01D00123D2E080239A00059B5A
:104A200000211800FBF792FE01230493049A0E9BC9
:104A30009A4215D2129A531C129305992F236B4454
:104A400018780123FBF794FD03005A1E9341DBB253
:104A5000002B01D00123B3E0049B01330493E5E76D
:104A6000119B0133119342E74F236B441B78032BB7
:104A700001D1009B00E00D9B1193129A531C1293DD
:104A800005992F236B4418780123FBF771FD030070
:104A90005A1E9341DBB2002B01D0012390E0119B01
:104AA000013B1193119B5A1E9341DBB2002B00D0A6
:104AB000E3E74F236B441B78032B75D1059B5222F0
:104AC0001A70059B013352221A70059B0233612232
:104AD0001A70059B033341221A70059BE533FF339F
:104AE00072221A70059BE633FF3372221A70059BFF
:104AF000E733FF3341221A70059BE833FF3361220D
:104B00001A70059BE933FF33089AD2B2013AD2B248
:104B10001A70059BEA33FF33089A92B2013A92B2B7
:104B20001212D2B21A70059BEB33FF33089A013A86
:104B3000120CD2B21A70059BEC33FF33089A013A7B
:104B4000120ED2B21A70059BED33FF3302221A7097
:104B5000059BEE33FF3300221A70059BEF33FF33C2
:104B600000221A70059BF033FF3300221A70059B58
:104B7000FF33FF3355221A70059B144A9446634451
:104B8000AA221A700A9B5A1C05992F236B44187885
:104B90000123FBF7EDFC0A9BDA1D05992F236B44DB
:104BA00018780123FBF7E4FC2F236B441B780022C9
:104BB00000211800FBF738FD03005A1E9341DBB2B9
:104BC000180014B010BDC04600FFFFFFFF01000039
:104BD00082B0019001235B42180002B07047C046CA
:104BE00082B001900091C04602B0704700B583B01A
:104BF0000190074A019B1A600023002B03D0019B00
:104C0000180005F0FCFC019B180003B000BDC04675
:104C1000480B010000B583B00190019B1800FFF71D
:104C2000E5FF019B180005F0EAFC019B180003B0AA
:104C300000BDC04682B00190034A019B1A60019BEF
:104C4000180002B07047C046480B010010B582B092
:104C500001900091019B1800FFF7ECFF074A019BB0
:104C60001A60019B009A043313CA13C313CA13C3F7
:104C700013CA13C3019B180002B010BD240B01001E
:104C800000B583B00190019B002B06D0019B1B68EF
:104C900018331B68019A100098470023180003B0CE
:104CA00000BDC04610B58CB00190019B28331A009E
:104CB00003AB9A6103AB80225200DA61019B04339B
:104CC0002F246C4403AA11001800FFF71BF80300FF
:104CD00023702F236B441B78002B03D103AB5B7A2B
:104CE000002B01D100230FE0019B28229B5C002BAD
:104CF00008D1019B2833180003AB09330D2219009A
:104D000006F0EDFC019B283318000CB010BDC04626
:104D100082B00190019B00225A81C04602B07047C8
:104D200082B00190019B5B89180002B07047C046B9
:104D300082B001900091009B9AB2019B5A81C046BB
:104D400002B0704700B583B00190094A019B1A6018
:104D5000019B1800FFF74AFF0023002B03D0019BA3
:104D6000180005F04CFC019B180003B000BDC046C4
:104D7000240B010000B583B00190019B1800FFF7E0
:104D8000E1FF019B180005F03AFC019B180003B0FD
:104D900000BDC0460EB400B584B00190019B012B4C
:104DA00009D106AB0393064B1B68DB68039A059990
:104DB000180006F0ABFEC04604B008BC03B01847AC
:104DC0003805001082B00190034A019B1A60019BD4
:104DD000180002B07047C046543E010084B010B5C0
:104DE00082B00190042004ACA4466044016042609B
:104DF0008360019B1800FFF7E5FF0B4A019B1A60D7
:104E0000019B042204A98C466244181D11008923C9
:104E10009B001A0006F063FC019B180002B010BC56
:104E200008BC04B01847C046EC0B010000B585B0C3
:104E30000190019B04331800FEF764FD0300039307
:104E4000019B002B06D0019B1B6820331B68019A35
:104E500010009847039B180005B000BD10B586B040
:104E6000039002910192039B181D17246C4404AB1C
:104E7000019A0299FEF7ECFA0300237017236B44A2
:104E80001B78002B0AD017236B441A78054B1900A6
:104E90000020FFF77FFF01235B4200E0049B180026
:104EA00006B010BD640B010010B586B003900291EE
:104EB0000192019A114B19000020FFF76BFF039B31
:104EC000181D17246C4404AB019A0299FEF750F99F
:104ED0000300237017236B441B78002B0AD0172381
:104EE0006B441A78064B19000020FFF753FF01238B
:104EF0005B4200E0049B180006B010BD7C0B010073
:104F0000880B010082B001900023180002B07047A6
:104F100010B586B0039002910192019B022B05D13E
:104F2000039B1A69029BD318029307E0019B012B94
:104F300004D1039BDA68029BD3180293039B0433CA
:104F4000029A17246C4411001800FEF7F5FC0300C8
:104F5000237017236B441B78002B0AD017236B4454
:104F60001A780A4B19000020FFF714FF01235B4257
:104F700008E0039BDA68064B19000020FFF70AFFE0
:104F8000039BDB68180006B010BDC046A00B0100F3
:104F9000B40B010010B584B00190019B04330F24C1
:104FA0006C441800FEF7F4FB030023700F236B44DE
:104FB0001B78002B0AD00F236B441A78054B19007D
:104FC0000020FFF7E7FE01235B4200E0002318000A
:104FD00004B010BDCC0B010082B00190019B1B6995
:104FE000180002B07047C04600B583B00190094A6E
:104FF000019B1A60019B180003F0D0FC0023002BDA
:1050000003D0019B180005F0FAFA019B180003B0C9
:1050100000BDC046EC0B010000B583B00190019BC0
:105020001800FFF7E1FF019B180005F0E8FA019B6B
:10503000180003B000BDC04684B0039002910192F5
:1050400001235B42180004B07047C0460EB400B59F
:1050500084B00190019B012B09D106AB0393064B51
:105060001B68DB68039A0599180006F04FFDC046DF
:1050700004B008BC03B018473805001082B0019096
:105080000023180002B0704782B00190002318007E
:1050900002B0704782B001900023180002B0704740
:1050A00000B583B06B46180003F0F4FE6B461800A1
:1050B00006F090F903000193019B5B69503B5A068F
:1050C000019B1B6901335B051A43019BDB681B04D1
:1050D0001A43019B9B68DB021A43019B5B685B01DF
:1050E0001A43019B1B68002B00DA01335B1013434A
:1050F000180003B000BDC04600B585B00190009116
:10510000019B009A1100180002F038FE1F4A019B13
:105110001A60009A1E4B19000020FFF797FF00232A
:105120000393039B002B27DC1A4B039A9200D3585E
:10513000002B1DD1174B039A92000199D150019A6F
:1051400090239B000399D150019B9868019A90236A
:105150009B00D358104902000020FFF777FF039B04
:10516000DAB2019B103319001000FDF759FE09E077
:10517000039B01330393D4E7009A084B11001800F6
:1051800003F06EFA019B180005B000BDFC0C010095
:10519000100C010024090010240C0100480C01002F
:1051A00000B585B00190164A019B1A600023039355
:1051B000039B002B15DC134B039A9200D258019BE2
:1051C0009A420AD10F4B039A92000021D150039BBF
:1051D000DBB200211800FDF723FE039B013303938C
:1051E000E6E7019B180002F0DDFD0023002B03D051
:1051F000019B180005F003FA019B180005B000BDE3
:10520000FC0C01002409001030B5554CA5448990D0
:1052100088918792899B9868899A90239B00D3589C
:10522000889A5049009303000020FFF70FFF899AE6
:1052300090239B00D258889B4B49FFA8543007F01D
:10524000C9F9879B0222134004D0484B6B440322C8
:105250001A700CE0879B0122134004D0434B6B442F
:1052600002221A7003E0414B6B4401221A70879AA4
:1052700080239B00134015D0879A8023DB001340C6
:1052800008D03A4B6B44394A6A44127808210A43E1
:105290001A7007E0354B6B44344A6A441278102187
:1052A0000A431A70324C6C44304B6B441A78FFA995
:1052B00054318BAB1800FDF7E1FD030023702C4B3C
:1052C0006B441B78002B09D0294B6B441A78294B6F
:1052D00019000020FFF7BAFE00233DE0879B08225B
:1052E00013400BD0244BD722D2006A449446634427
:1052F000DA688BAB11001800FEF71EFB1F4BD7229C
:10530000D2006A44D2181C4BD721C90069448C468C
:1053100063441000190089239B001A0006F0DFF98E
:105320008A239B00180005F06EF903001D00134B43
:10533000D722D2006A44D4186B46180021000C31E1
:1053400086239B001A0006F0CAF921686268A368E8
:105350002800FFF743FD2B001800094B9D4430BD8A
:1053600044F9FFFF7C0C0100A40C0100B70600000B
:10537000B6060000AC0C010074FBFFFFD8FDFFFF78
:10538000BC06000010B584B0019000910F246C445D
:10539000009B1800FEF716FD030023700F236B44DB
:1053A0001B78002B0AD00F236B441A78054B190089
:1053B0000020FFF74BFE01235B4200E000231800B2
:1053C00004B010BDC40C010010B584B00190019A66
:1053D00090239B00D358D8B20F246C4480239B00A9
:1053E0001A000021FEF708FF030023700F236B440F
:1053F0001B78002B0AD00F236B441A78054B190039
:105400000020FFF723FE01235B4200E00023180089
:1054100004B010BDDC0C010010B58CB001900091FF
:105420002F246C44009A02AB11001800FEF7F0FB29
:10543000030023702F236B441B78002B01D0002323
:105440000CE094235B00180005F0DDF803001C005D
:1054500002AB19002000FFF7F9FB230018000CB085
:1054600010BDC04610B586B003900291019217247A
:105470006C44029B1800FEF769FD0300237017239C
:105480006B441B78002B01D1002301E001235B4218
:10549000180006B010BDC04600B583B00190009161
:1054A000019B1B785BB2013305D10B490B4B2422C6
:1054B000180003F05BF8009B002B05D0019BDB6814
:1054C000019A52681A6004E0019B1B69019A5268B4
:1054D0001A60C04603B000BD340D0100780D010014
:1054E00000B583B001900A006B4603331A70019B2C
:1054F000180018231A00002106F00FF9019A6B46D4
:1055000003331B785BB21900100003F06FF9019BA5
:10551000180003B000BDC04600B583B001900091F3
:10552000019B009A11001800FFF7B6FFC04603B0B8
:1055300000BDC04600B583B001900091009A019B68
:1055400011001800FFF7E8FF019B180003B000BD31
:1055500000B583B00190074A019B1A600023002B1D
:1055600003D0019B180005F04AF8019B180003B016
:1055700000BDC046E03B010000B583B00190019B37
:105580001800FFF7E5FF019B180005F038F8019BB4
:10559000180003B000BDC0460FB400B583B005AB22
:1055A0000193064B1B68DB68019A0499180006F00A
:1055B000ADFAC04603B008BC04B018473805001067
:1055C0000EB400B584B00190019B012B09D106AB4C
:1055D0000393064B1B68DB68039A0599180006F0D5
:1055E00095FAC04604B008BC03B01847380500104F
:1055F00010B584B003900C00100019000B236B440D
:10560000221C1A700A236B44021C1A7009236B4473
:105610000A1C1A70039B079A11001800FFF76CFD13
:10562000184A039B1A60039B94229200981809233E
:105630006B4400241C570A236B4400229A560B2308
:105640006B440021595601235B420093230002F072
:105650005BFC039B992292009446634406AA12784D
:1056600052B211001800FFF73BFF039B99229200F2
:105670009446634401211800FFF75CFF039B180068
:1056800004B010BD880F010000B585B00190019BEA
:105690009422920094466344294A1100180002F0B3
:1056A00083FC019B992292009446634401211800D7
:1056B000FFF740FF00230393039B0F2B0CDC019BA0
:1056C0009422920094466344FF21180002F0A2FC49
:1056D000039B01330393EFE7019B00220021180095
:1056E00000F064F90300013B5A1E9341DBB2002B2A
:1056F00005D0144B1800FFF74FFF00231CE0019B5F
:10570000180000F025FB03000293029B012B05D13A
:10571000019B180000F054F803000DE0029B052BDC
:1057200005D1019B180000F011F8030004E0064BBE
:105730001800FFF731FF0023180005B000BDC04678
:10574000A0860100900D0100C80D010000B585B0D4
:10575000019000230393039B164A934222DC019B92
:1057600000223721180000F021F9019B0022292195
:10577000180000F01BF903005A425341DBB2002B22
:105780000CD0019A9F239B0080218900D1500A4BA5
:1057900019000020FFF714FF012308E0039B0133E9
:1057A0000393D8E7054B1800FFF7F6FE0023180017
:1057B00005B000BD87130000000E0100180E0100A7
:1057C00000B585B0019000230393039B1C4A9342CC
:1057D0002DDC322003F0E6FB019B180000F0F4F909
:1057E000019B00223721180000F0E0F88023DA0541
:1057F000019B2921180000F0D9F803005A425341B7
:10580000DBB2002B0FD0019B180000F0DDF90D4B2F
:1058100019000020FFF7D4FE019A9F239B0001216D
:10582000D150022308E0039B01330393CDE7064BDD
:105830001800FFF7B1FE0023180005B000BDC046F8
:1058400087130000380E01004C0E010010B584B023
:105850000190019B1800FFF717FF03000393039AC1
:10586000184B19000020FFF7ABFE019B180000F059
:1058700039FC03000C000199922292008A181360EF
:10588000546080239A00019B1021180000F08EF8CC
:1058900003005A1E9341DBB2002B05D00A4B1800BF
:1058A000FFF77AFE01230AE0019B942292009446BE
:1058B0006344064A1100180002F076FB002318002A
:1058C00004B010BD6C0E01007C0E010040420F00C0
:1058D00030B585B00390029100920193039A9F2303
:1058E0009B00D3581C00DB171D002200009B534374
:1058F0001A00039B1821180000F058F803005A1EE4
:105900009341DBB2002B01D0012307E080239A00F2
:105910000299039B180000F021FB0023180005B03A
:1059200030BDC04630B585B003900291009201931E
:10593000039A9F239B00D3581C00DB171D002200F5
:10594000009B53431A00039B1121180000F02EF80E
:1059500003005A1E9341DBB2002B01D0012307E064
:1059600080239A000299039B180000F097FA002305
:10597000180005B030BDC04682B001900023180069
:1059800002B0704782B001900023180002B0704747
:1059900010B582B00190019A92239B00D3185C68E5
:1059A0001B681800210002B010BDC04600B587B0CA
:1059B000039002910192039B9922920094466344C2
:1059C00000211800FFF7B6FD039B9422920098185F
:1059D000029B40221343190002F01CFB039B9422FC
:1059E00092009A18019B1B161900100002F012FB7E
:1059F000039B942292009A18019B1B14190010001B
:105A000002F008FB039B942292009A18019B1B1240
:105A10001900100002F0FEFA039B942292009446B3
:105A20006344019A1100180002F0F4FA039B9422D7
:105A30009200944663449521180002F0EBFA00238B
:105A40000593059B204A934226DC039B94229200F7
:105A500094466344FF21180002F0DCFA030004932B
:105A6000049B8022134013D1039B992292009446F9
:105A7000634401211800FFF75DFD039B942292000F
:105A800094466344FF21180002F0C4FA049B17E017
:105A9000059B01330593D4E7039B9922920094461A
:105AA000634401211800FFF745FD039B94229200F7
:105AB00094466344FF21180002F0ACFA01235B42D4
:105AC000180007B000BDC0468713000000B587B0BE
:105AD000039002910192039B9922920094466344A1
